:020000040800F2
:1000000010370020D5960108C5320008DF96010898
:10001000C7320008CB320008CF32000800000000D1
:10002000000000000000000000000000D3320008C3
:10003000D532000800000000EB96010815CB00083F
:10004000EF960108EF960108EF960108EF96010878
:10005000EF960108EF960108EF960108EF96010868
:10006000EF960108EF960108EF960108EF96010858
:10007000EF960108EF960108EF960108EF96010848
:10008000EF960108EF960108EF960108EF96010838
:10009000EF960108EF960108EF960108D7320008A5
:1000A000EF960108EF960108EF960108EF96010818
:1000B000EF960108E9320008F1320008EF960108D6
:1000C000EF960108EF960108EF960108EF960108F8
:1000D000EF960108F93200080133000809330008DF
:1000E000EF960108EF960108EF960108EF960108D8
:1000F000EF960108EF960108EF960108EF960108C8
:10010000EF960108EF960108EF960108EF960108B7
:100110001133000819330008EF960108EF96010823
:10012000EF960108EF960108EF960108EF96010897
:10013000EF960108EF960108EF960108EF96010887
:10014000EF960108EF960108EF960108F9EC000818
:10015000EF960108EF960108EF9601082133000899
:10016000EF960108EF960108EF960108EF96010857
:10017000EF960108EF960108EF960108EF96010847
:10018000EF960108EF960108DFF80CD01AF0AEFEEA
:1001900000480047A10100081037002000BFFEE71B
:1001A00000F0F8F80349087000F099F801E000F059
:1001B000BCF8FCE70011002010B56F4840686E499C
:1001C00008600CF056FC6C4948606C49C8606A488D
:1001D000406869490968401A674988600AF098FCD4
:1001E000012007F07FFA01200AF0B8FC0AF00CFDAC
:1001F0000FF080FB6249012008F0B6FC012008F0F6
:1002000064FF9FED600A04F0A1FE01F0AAFE0CF06D
:1002100030FC5A49086108460069C968401A5749C4
:10022000486110BD10B59FED580A08F0CCFA54494A
:1002300002200AF0F3F9022003F0B9FE10BD10B558
:1002400006F0C6F94E489FED510A07F0D9FF10BDE0
:1002500010B50CF00EFC494908600A2002F086FD3A
:100260000A2008F0DDFF0A200AF0DFFC0A200FF068
:1002700062FB0A2002F0AAFE0A200AF05FFF0CF0DF
:10028000F8FB3E494860084640680968401A3B4907
:10029000886010BD10B514200AF09EFC142003F0F5
:1002A000D4F9142005F013F8142010F0A8F8142045
:1002B00004F015FA142004F05CFB142003F0D0FFC6
:1002C00010BD10B532200AF039FB32200FF04FFC80
:1002D00010BD10B54FF4FA700BF03AFB10BD0020C2
:1002E00000BF1FE000EB4001294A02EB8101898831
:1002F0004FF47A7292FBF1F100EB4002244B03EBD6
:100300008202D18000EB40011A4602EB8101C988CC
:10031000012905DA012100EB400203EB8202D180C2
:10032000411CC8B20728DDD3704770B5002400BF58
:100330001EE00CF0D9FB054604EB4400144901EB28
:1003400080008068281A04EB4401114A02EB810105
:10035000C98888420AD304EB4400114601EB8000AF
:10036000856004EB440152F821008047601CC4B250
:10037000072CDED370BD0000A4050020B0050020CE
:10038000B40800206F12833A6F12033B0AD7A33BD5
:100390000000002010B54FF4806010F05FF90CF001
:1003A00036FB64200CF08EFB0AF05AFD0DF0ECFCDD
:1003B00004F0B7FF02F0ECF90CF014F864200CF034
:1003C00081FB0BF031FB0CF07DFF0CF0F9FE0DF022
:1003D00025F90DF03DF82449487008700120887017
:1003E0000DF05AFB2049C87002F09EFF64200CF00B
:1003F00069FB1E480CF0A2FB0A200CF063FB1B48B3
:100400000CF06AFC4FF496400CF036FD4FF4E130EE
:100410000CF00CFE10F010F808B9002000E00220EB
:100420001349087008460078022802D10FF08EFEAA
:1004300005E00F48007810B90C480CF01DFD0BF0DA
:100440006EF864200CF03EFB08F0DAFA0FF076F854
:1004500032200CF037FB0FF033FB06F039FF05A01C
:1004600002F0EAF8012010BD3011002020A10700A1
:100470005400002053595320696E6974204F4B215A
:100480000000000070B505460C462146FE4802F00B
:1004900052FF2146FC480CF000FC70BDFB4890ED7B
:1004A000010AF8EEC00A9FEDFA1A80EE810A10EEFA
:1004B000100AF849C864F54890ED020AF8EEC00A3F
:1004C0009FEDF31A80EE810A10EE100A0865EF48DE
:1004D00090ED030AF8EEC00A9FEDED1A80EE810A56
:1004E00010EE100A4865E94890ED040AF8EEC00ADB
:1004F0009FEDE71A80EE810A10EE100A8865E34846
:1005000090ED050AF8EEC00A9FEDE11A80EE810A2F
:1005100010EE101ADF48C165DC4890ED060AF8EECF
:10052000C00A9FEDDB1A80EE810A10EE101AD9483E
:100530000166D64890ED070AF8EEC00A9FEDD41A7E
:1005400080EE810A10EE100AD2494866CF4890ED3D
:10055000080AF8EEC00A9FEDCE1A80EE810A10EE6E
:10056000101ACC488166C94890ED090AF8EEC00A15
:100570009FEDC71A80EE810A10EE101AC548C166B9
:10058000C24890ED0A0AF8EEC00A9FEDC11A80EE4B
:10059000810A10EE100ABF490867BC4890ED0B0AAB
:1005A000F8EEC00A9FEDBA1A80EE810A10EE100A2A
:1005B0004867B64890ED0C0AF8EEC00A9FEDB41AF1
:1005C00080EE810A10EE100A8867B04890ED0D0A9F
:1005D000F8EEC00A9FEDAE1A80EE810A10EE100A06
:1005E000C867AA4890ED0E0AF8EEC00A9FEDA81A57
:1005F00080EE810A10EE101AA648C0F88010A348B9
:1006000090ED0F0AF8EEC00A9FEDA11A80EE810A64
:1006100010EE101A9F48C0F884109C4890ED100A04
:10062000F8EEC00A9FED9A1A80EE810A10EE100AC9
:100630009849C1F88800954890ED110AF8EEC00A73
:100640009FED931A80EE810A10EE101A9148C0F8BF
:100650008C108E4890ED120AF8EEC00A9FED8C1AAD
:1006600080EE810A10EE101A8A48C0F89010874870
:1006700090ED130AF8EEC00A9FED851A80EE810A0C
:1006800010EE100A8349C1F89400804890ED140AD6
:10069000F8EEC00A9FED7E1A80EE810A10EE100A75
:1006A000C1F89800794890ED150AF8EEC00A9FED60
:1006B000781A80EE810A10EE100AC1F89C00734887
:1006C00090ED160AF8EEC00A9FED711A80EE810ACD
:1006D00010EE100AC1F8A0006C4890ED170AF8EE71
:1006E000C00A9FED6B1A80EE810A10EE100AC1F865
:1006F000A400664890ED180AF8EEC00A9FED641A4F
:1007000080EE810A10EE100AC1F8A8005F4890ED53
:10071000190AF8EEC00A9FED5E1A80EE810A10EE0B
:10072000100AC1F8AC00594890ED1A0AF8EEC00A58
:100730009FED571A80EE810A10EE100AC1F8B00042
:10074000524890ED1B0AF8EEC00A9FED511A80EE58
:10075000810A10EE100AC1F8B4004C4890ED1C0A52
:10076000F8EEC00A9FED4A1A80EE810A10EE100AD8
:10077000C1F8B800454890ED1D0AF8EEC00A9FED9B
:10078000441A80EE810A10EE100AC1F8BC003F48FE
:1007900090ED1E0AF8EEC00A9FED3D1A80EE810A28
:1007A00010EE100AC1F8C000384890ED1F0AF8EEAC
:1007B000C00A9FED371A80EE810A10EE100AC1F8C8
:1007C000C400324890ED200AF8EEC00A9FED301ABE
:1007D00080EE810A10EE100AC1F8C8002B4890ED97
:1007E000210AF8EEC00A9FED2A1A80EE810A10EE67
:1007F000100AC1F8CC00254890ED220AF8EEC00A94
:100800009FED231A80EE810A10EE100AC1F8D00085
:100810001E4890ED230AF8EEC00A9FED1D1A80EEE7
:10082000810A10EE100AC1F8D400184890ED240A8D
:10083000F8EEC00A9FED161A80EE810A10EE100A3B
:10084000C1F8D8001148D0F8F40010B90020887021
:100850000AE00E48D0F8F400012802D10D49887052
:1008600002E002200B498870084890ED3F0AF8EE3C
:10087000C00AB2EE041A80EE810A10EE100A054991
:10088000C1F8DC00014807E06E070020C805002021
:100890000000C842B717002090ED400AF8EEC00AE9
:1008A000B2EE041A80EE810A10EE100AC1F8E000E0
:1008B000FE4890ED410AF8EEC00AB2EE041A80EE4E
:1008C000810A10EE100AC1F8E400F84890ED450ADC
:1008D000B8EEC00A10EE100AC1F8E800F34890ED37
:1008E000460AB8EEC00A10EE100AC1F8EC00EF4854
:1008F00090ED470AB8EEC00A10EE100AC1F8F000F9
:10090000EA4890ED3E0AB8EEC00A10EE100AC1F8AF
:10091000F400E648D0F8200110B90020C87002E0C9
:100920000120E349C870704770B504460D46642C39
:1009300000DD70BDDD4840F82450FFF7AFFDDD4815
:10094000848204F0E3FC00BFF3E72DE9FF41054694
:100950000E460024AA222146641CD7484254052290
:100960002146641C42542146641C4554E022214621
:10097000641C425400222146641C42542146641CDB
:1009800046549DF809202146641C42549DF80820D5
:100990002046611CCCB2C8490A549DF80D2020465F
:1009A000611CCCB2C4490A549DF80C202046611C3D
:1009B000CCB2C1490A549DF829202046611CCCB212
:1009C000BD490A549DF828202146601CC4B2BA488B
:1009D00042549DF82D202046611CCCB2B6490A54E1
:1009E0009DF82C202046611CCCB2B3490A549DF8D6
:1009F00031202046611CCCB2AF490A549DF830200A
:100A00002046611CCCB2AC490A54601F0871002713
:100A1000002005E0A849095C3944CFB2411CC8B2A6
:100A2000A042F7DB2046611CCCB2A3490F542146FB
:100A3000A148FFF727FDBDE8FF812DE9FE430446ED
:100A40000D460026002004E0215C3144CEB2411C5A
:100A5000C8B2691E8142F7DC601910F8010CB0427F
:100A600001D0BDE8FE832078AA2802D16078AF28A3
:100A700000D0F6E7A07805287BD1E078E0287AD18D
:100A80006079102853D004DC012807D0022853D104
:100A900024E011284FD0E1284ED141E0A07920B9BF
:100AA000E079012801D185490870A07928B9E07959
:100AB000022802D1012081494870A07928B9E07943
:100AC000042802D101207E490870A07928B9E07974
:100AD000B02802D101207749C8702EE0A07940B932
:100AE000E079AA2805D10AF077FD07F089FF04F024
:100AF0000DFCA07930B9E079AB2803D10AF09BFE58
:100B000004F004FCA07950B9E079AF2807D10AF0CD
:100B100063FD07F075FF0AF08EFE04F0F7FB0CE0B2
:100B2000E079A17940EA01206249888205E0601DF0
:100B300002F04AFD01E000E000BF00BFE07BA17BC6
:100B400040EA0120617B227B41EA0221E27AA37A1A
:100B500042EA0322CDE900210290607A277A40EA36
:100B60000723E079A77940EA07226179AF20FFF7F0
:100B7000ECFE17E0FFE7E078E12813D1A079617976
:100B800040EA0127E0790006217A00EB0140617A12
:100B900000EB0120A17A00EB010841463846FFF73F
:100BA000C3FE00BF00BF5CE710B54648007848B1FF
:100BB00045480078801DC1B24448FFF73EFF002041
:100BC0004049087010BD1FB5AA208DF800008DF8AF
:100BD000010000208DF8020009208DF80300052097
:100BE0008DF8040000208DF8050001208DF8060026
:100BF00000208DF8070011208DF8080001208DF8E5
:100C0000090090208DF80A0000208DF80B008DF867
:100C10000C00002400BF05E01DF800102144CCB2F8
:100C2000411CC8B20D28F7DB8DF80D400E21684637
:100C3000FFF728FC1FBD2DE9F0432DED028B83B09B
:100C400005460E4617469846B0EE408AF0EE608A9A
:100C50000024AA222146641C17484254052221463A
:100C6000641C4254AF222146641C42540422214693
:100C7000641C425400222146641C42542146641CD8
:100C800045542146641C465401979DF80720204690
:100C9000611CCCB208490A549DF806202046611C0C
:100CA000CCB205490A549DF8052011E0C805002082
:100CB000B7170020580700206E07002018120020E8
:100CC000C40300205900002058000020A007002085
:100CD0002046611CCCB2FE490A549DF804202046EF
:100CE000611CCCB2FA490A54CDF804809DF8072063
:100CF0002046611CCCB2F6490A549DF806202046D5
:100D0000611CCCB2F2490A549DF805202046611CB2
:100D1000CCB2EF490A549DF804202046611CCCB2A5
:100D2000EB490A54B2EE040A28EE000ABDEEC00AEE
:100D300010EE100A00B202909DF809202046611CB6
:100D4000CCB2E3490A549DF808202046611CCCB27D
:100D5000DF490A54BCEEE80A10EE100A80B2009097
:100D60009DF801202046611CCCB2D9490A549DF857
:100D700000202046611CCCB2D5490A54601F08717E
:100D80004FF00009002006E0D149095C494401F018
:100D9000FF09411CC8B2A042F6DB2046611CCCB260
:100DA000CB4901F800902146C948FFF76BFB03B01F
:100DB000BDEC028BBDE8F0832DE9F04705460E46F9
:100DC00017469846DDF820A00024AA222146641C7C
:100DD000BF48425405222146641C4254AF2221469A
:100DE000641C425408222146641C425400222146BD
:100DF000641C42542146641C45542146641C4654DC
:100E00002046611CCCB2B2490F542046611CCCB2C2
:100E1000AF4901F800802046611CCCB2AC4901F812
:100E200000A0601F08719146002006E0A849095CF7
:100E3000494401F0FF09411CC8B2A042F6DB20463C
:100E4000611CCCB2A24901F800902146A048FFF7EE
:100E500019FBBDE8F087F8B505460E460024AA2226
:100E60002146641C9A48425405222146641C42547F
:100E7000AF222146641C425405222146641C425480
:100E800000222146641C425400959DF80120214611
:100E9000641C42549DF800202146641C4254009674
:100EA0009DF801202046611CCCB289490A549DF866
:100EB00000202046611CCCB285490A54601F08718D
:100EC0000027002005E08249095C3944CFB2411C6B
:100ED000C8B2A042F7DB2046611CCCB27C490F545B
:100EE00021467B48FFF7CEFAF8BD7FB50024AA2241
:100EF0002146641C7648425405222146641C425413
:100F0000AF222146641C425406222146641C4254EE
:100F100000222146641C42549DF801202146641C95
:100F200042549DF800202146641C42549DF805203F
:100F30002046611CCCB266490A549DF80420214623
:100F4000601CC4B2624842549DF809202046611CCE
:100F5000CCB25F490A549DF808202046611CCCB2EF
:100F60005B490A549DF80D202046611CCCB25849BB
:100F70000A549DF80C202046611CCCB254490A54F6
:100F80009DF821202046611CCCB251490A549DF89D
:100F900020202046611CCCB24D490A549DF82520E2
:100FA0002046611CCCB24A490A549DF824202146AF
:100FB000601CC4B2464842549DF829202046611C5A
:100FC000CCB243490A549DF828202046611CCCB27B
:100FD0003F490A549DF82D202046611CCCB23C4963
:100FE0000A549DF82C202046611CCCB238490A5482
:100FF000601F08710025002005E03549095C29447F
:10100000CDB2411CC8B2A042F7DB2046611CCCB275
:101010002F490D5421462E48FFF734FA7FBD7FB586
:101020000024AA222146641C294842540522214654
:10103000641C4254AF222146641C425403222146C0
:10104000641C425400222146641C42549DF8012035
:101050002146641C42549DF800202146641C4254E1
:101060009DF805202046611CCCB219490A549DF810
:1010700004202046611CCCB215490A549DF8092071
:101080002046611CCCB212490A549DF80820204623
:10109000611CCCB20E490A549DF80D202046611CFB
:1010A000CCB20B490A549DF80C202046611CCCB2EE
:1010B00007490A549DF821202046611CCCB20449FE
:1010C0000A549DF820202046611CCCB2004901E062
:1010D0006E0700200A549DF825202046611CCCB2E2
:1010E000FE490A549DF824202046611CCCB2FB49DD
:1010F0000A549DF829202046611CCCB2F7490A54B5
:101100009DF828202046611CCCB2F4490A549DF871
:101110002D202046611CCCB2F0490A549DF82C20A9
:101120002046611CCCB2ED490A549DF8312021467D
:10113000601CC4B2E94842549DF830202046611C2E
:10114000CCB2E6490A549DF835202046611CCCB249
:10115000E2490A549DF834202046611CCCB2DF4994
:101160000A54601F08710025002005E0DB49095C76
:101170002944CDB2411CC8B2A042F7DB2046611C15
:10118000CCB2D6490D542146D448FFF77BF97FBD38
:101190002DE9FF4105461E46DDF830800024AA22D5
:1011A0002146641CCD48425405222146641C425409
:1011B000AF222146641C425442222146641C425400
:1011C00000222146641C42542146641C45549DF86B
:1011D00005202146641C42549DF804202046611CD1
:1011E000CCB2BE490A549DF809202046611CCCB2FD
:1011F000BA490A549DF808202046611CCCB2B74970
:101200000A542046611CCCB2B4490E549DF82920E2
:101210002046611CCCB2B1490A549DF828202046D2
:10122000611CCCB2AD490A549DF82D202046611CAA
:10123000CCB2AA490A549DF82C202046611CCCB29D
:10124000A6490A542046611CCCB2A44901F800808A
:10125000601F08710027002005E0A049095C39449F
:10126000CFB2411CC8B2A042F7DB2046611CCCB211
:101270009A490F5421469948FFF704F9BDE8FF81C8
:101280002DE9FF4105460E46DDF828800024AA22FC
:101290002146641C9148425405222146641C425454
:1012A000AF222146641C425441222146641C425410
:1012B00000222146641C42542146641C45542146A8
:1012C000641C46549DF809202046611CCCB2834919
:1012D0000A549DF808202046611CCCB27F490A546C
:1012E0009DF80D202046611CCCB27C490A549DF823
:1012F0000C202046611CCCB278490A542046611C5F
:10130000CCB2764901F80080601F087100270020E8
:1013100005E07249095C3944CFB2411CC8B2A04211
:10132000F7DB2046611CCCB26C490F5421466B4858
:10133000FFF7A8F8BDE8FF8137B50024AA222146AF
:10134000641C6648425405222146641C4254AF2264
:101350002146641C425407222146641C4254002248
:101360002146641C42549DF803202146641C4254CB
:101370009DF802202146641C42549DF8012020461D
:10138000611CCCB255490A549DF800202046611CCE
:10139000CCB252490A549DF807202046611CCCB2B9
:1013A0004E490A549DF806202046611CCCB24B4998
:1013B0000A549DF805202046611CCCB247490A54C6
:1013C0009DF804202046611CCCB244490A549DF883
:1013D00009202046611CCCB240490A549DF80820DF
:1013E0002046611CCCB23D490A54601F087100259B
:1013F000002005E03949095C2944CDB2411CC8B23E
:10140000A042F7DB2046611CCCB234490D54214682
:101410003248FFF737F83EBD2DE9F84F05460E4636
:1014200017469846DDE90AAB0024AA222146641C2F
:101430002A48425405222146641C4254AF222146C8
:10144000641C425402222146641C4254002221465C
:10145000641C425400959DF801202146641C4254AE
:101460009DF800202146641C425400969DF80120FE
:101470002046611CCCB219490A549DF80020204630
:10148000611CCCB215490A5400979DF801202046F2
:10149000611CCCB211490A549DF800202046611C01
:1014A000CCB20E490A54CDF800809DF801202046A8
:1014B000611CCCB209490A549DF800202046611CE9
:1014C000CCB206490A54CDF800A09DF80120204670
:1014D000611CCCB201490A5402E000006E070020F2
:1014E0009DF800202046611CCCB2FD490A54CDF87D
:1014F00000B09DF801202046611CCCB2F8490A5486
:101500009DF800202146601CC4B2F54842540C9856
:1015100000909DF801202046611CCCB2F0490A548D
:101520009DF800202046611CCCB2ED490A540D986C
:1015300000909DF801202046611CCCB2E8490A5475
:101540009DF800202046611CCCB2E5490A540E9853
:1015500000909DF801202046611CCCB2E0490A545D
:101560009DF800202046611CCCB2DD490A54601F62
:1015700008714FF00009002006E0D949095C494490
:1015800001F0FF09411CC8B2A042F6DB2046611CF5
:10159000CCB2D34901F800902146D148FEF772FF42
:1015A000BDE8F88F0FB438B50024AA222146641C88
:1015B000CB48425405222146641C4254AF222146A6
:1015C000641C4254F1222146641C425400222146EC
:1015D000641C42549DED050ABDEEC00A10EE100ACF
:1015E00000B200909DF801202146641CBC48425482
:1015F0009DF800202146641C42549DED060ABDEE74
:10160000C00A10EE100A00B200909DF8012020469A
:10161000611CCCB2B2490A549DF800202046611CDE
:10162000CCB2AF490A549DED070ABDEEC00A10EED8
:10163000100A00B200909DF801202146601CC4B23F
:10164000A74842549DF800202046611CCCB2A44912
:101650000A54601F08710025002005E0A049095CBC
:101660002944CDB2411CC8B2A042F7DB2046611C20
:10167000CCB29B490D5421469948FEF703FF38BC74
:101680005DF814FB30B52DED048B81B0B0EE408ACF
:10169000F0EE608AB0EE419A0024AA222146641C32
:1016A0008F48425405222146641C4254AF222146F1
:1016B000641C42540B222146641C425400222146E1
:1016C000641C42549FED870A28EE000ABDEEC00A52
:1016D00010EE100A00B200909DF801202146641C13
:1016E0007F4842549DF800202146641C42549FEDDF
:1016F0007D0A28EE800ABDEEC00A10EE100A00B284
:1017000000909DF801202046611CCCB274490A5417
:101710009DF800202046611CCCB271490A549FED0F
:10172000710A29EE000ABDEEC00A10EE100A00B2DE
:1017300000909DF801202046611CCCB268490A54F3
:101740009DF800202046611CCCB265490A54601FF8
:1017500008710025002005E06149095C2944CDB2EB
:10176000411CC8B2A042F7DB2046611CCCB25C49E8
:101770000D5421465A48FEF785FE01B0BDEC048B9E
:1017800030BD2DE9F0412DED048B82B0B0EE408AE2
:10179000F0EE608AB0EE419A05460E4617460024E8
:1017A0000095AA222146641C4D4842540522214638
:1017B000641C4254AF222146641C4254012221463B
:1017C000641C425400222146641C42549FED460A88
:1017D00028EE000ABDEEC00A10EE100A00B2019019
:1017E0009DF805202146641C3D4842549DF8042084
:1017F0002146641C42549FED3C0A28EE800ABDEE4F
:10180000C00A10EE100A00B201909DF80520214692
:10181000601CC4B2324842549DF804202046611C2A
:10182000CCB22F490A549FED300A29EE000ABDEED2
:10183000C00A10EE100A00B201909DF80520204663
:10184000611CCCB226490A549DF804202046611C34
:10185000CCB223490A549DF803202046611CCCB227
:101860001F490A549DF802202146601CC4B21C483E
:1018700042549DF801202146601CC4B218484254CD
:101880009DF800202046611CCCB215490A54204620
:10189000611CCCB212490E542046611CCCB21049D6
:1018A0000F54601F08714FF00008002006E00C493B
:1018B000095C414401F0FF08411CC8B2A042F6DBBC
:1018C0002046611CCCB2064901F80080214604483C
:1018D000FEF7D8FD02B0BDEC048BBDE8F08100003E
:1018E0006E070020CDCCCC3D0000C842F948C06C4A
:1018F00000EE100A5FED040A20EE200ABDEEC00AD9
:10190000F54880ED010AF348006D00EE100A5FED26
:101910000A0A20EE200ABDEEC00AEF4880ED020A56
:10192000EC48406D00EE100A5FED110A20EE200A2F
:10193000BDEEC00AE84880ED030AE648806D00EE7F
:10194000100A5FED170A20EE200ABDEEC00AE24839
:1019500080ED040ADF48C06D00EE100A5FED1E0A3C
:1019600020EE200ABDEEC00ADB4880ED050AD9480A
:10197000006E00EE100A5FED240A20EE200ABDEE94
:10198000C00AD54880ED060AD248406E00EE100A23
:101990005FED2B0A20EE200ABDEEC00ACE4880ED96
:1019A000070ACC48806E00EE100A5FED310A20EE87
:1019B000200ABDEEC00AC84880ED080AC548C06EBE
:1019C00000EE100A5FED380A20EE200ABDEEC00AD4
:1019D000C14880ED090ABF48006F00EE100A5FEDB4
:1019E0003E0A20EE200ABDEEC00ABB4880ED0A0A7E
:1019F000B848406F00EE100A5FED450A20EE200A5D
:101A0000BDEEC00AB44880ED0B0AB248806F00EE0C
:101A1000100A5FED4B0A20EE200ABDEEC00AAE4868
:101A200080ED0C0AAB48C06F00EE100A5FED520A61
:101A300020EE200ABDEEC00AA74880ED0D0AA54899
:101A4000D0F8800000EE100A5FED590A20EE200A5F
:101A5000BDEEC00AA04880ED0E0A9E48D0F8840072
:101A600000EE100A5FED600A20EE200ABDEEC00A0B
:101A7000994880ED0F0A9748D0F8880000EE100AC8
:101A80005FED670A20EE200ABDEEC00A924880EDA5
:101A9000100A9048D0F88C0000EE100A5FED6E0A34
:101AA00020EE200ABDEEC00A8B4880ED110A89485D
:101AB000D0F8900000EE100A5FED750A20EE200AC3
:101AC000BDEEC00A844880ED120A8248D0F8940026
:101AD00000EE100A5FED7C0A20EE200ABDEEC00A7F
:101AE0007D4880ED130A7B48D0F8980000EE100A7C
:101AF0005FED830A20EE200ABDEEC00A764880ED35
:101B0000140A7448D0F89C0000EE100A5FED8A0AAF
:101B100020EE200ABDEEC00A6F4880ED150A6D4820
:101B2000D0F8A00000EE100A5FED910A20EE200A26
:101B3000BDEEC00A684880ED160A6648D0F8A400D9
:101B400000EE100A5FED980A20EE200ABDEEC00AF2
:101B5000614880ED170A5F48D0F8A80000EE100A2F
:101B60005FED9F0A20EE200ABDEEC00A5A4880EDC4
:101B7000180A5848D0F8AC0000EE100A5FEDA60A2B
:101B800020EE200ABDEEC00A534880ED190A5148E4
:101B9000D0F8B00000EE100A5FEDAD0A20EE200A8A
:101BA000BDEEC00A4C4880ED1A0A4A48D0F8B4008D
:101BB00000EE100A5FEDB40A20EE200ABDEEC00A66
:101BC000454880ED1B0A4348D0F8B80000EE100AE3
:101BD0005FEDBB0A20EE200ABDEEC00A3E4880ED54
:101BE0001C0A3C48D0F8BC0000EE100A5FEDC20AA7
:101BF00020EE200ABDEEC00A374880ED1D0A3548A8
:101C0000D0F8C00000EE100A5FEDC90A20EE200AED
:101C1000BDEEC00A304880ED1E0A2E48D0F8C40040
:101C200000EE100A5FEDD00A20EE200ABDEEC00AD9
:101C3000294880ED1F0A2748D0F8C80000EE100A96
:101C40005FEDD70A20EE200ABDEEC00A224880EDE3
:101C5000200A2048D0F8CC0000EE100A5FEDDE0A22
:101C600020EE200ABDEEC00A1B4880ED210A19486B
:101C7000D0F8D00000EE100A5FEDE50A20EE200A51
:101C8000BDEEC00A144880ED220A1248D0F8D400F4
:101C900000EE100A5FEDEC0A20EE200ABDEEC00A4D
:101CA0000D4880ED230A0B48D0F8D80000EE100A4A
:101CB0005FEDF30A20EE200ABDEEC00A064880ED73
:101CC000240A0448807848B900200349C1F8F40088
:101CD00010E00000B7170020C8050020FE488078FB
:101CE000012803D1FD49C1F8F40003E00220FB49BB
:101CF000C1F8F400F848D0F8DC0000EE100AF2EE6B
:101D0000040A20EE200ABDEEC00AF44880ED3F0A26
:101D1000F148D0F8E00000EE100AF2EE040A20EEDE
:101D2000200ABDEEC00AED4880ED400AEA48D0F82E
:101D3000E40000EE100AF2EE040A20EE200ABDEEE6
:101D4000C00AE64880ED410AE348D0F8E80000EE1A
:101D5000100ABDEEC00AE14880ED450ADE48D0F821
:101D6000EC0000EE100ABDEEC00ADC4880ED460A29
:101D7000D948D0F8F00000EE100ABDEEC00AD748EE
:101D800080ED470AD448D0F8F40000EE100ABDEE0A
:101D9000C00AD24880ED3E0ACF48C07820B9002062
:101DA000CE49C1F8200103E00120CC49C1F820014F
:101DB000704731B582B00024BDF80800642800DD0A
:101DC0003EBDFFF793FDC548BDF8081050F821004F
:101DD0000190AA222046611CCCB2C1490A540522B6
:101DE0002046611CCCB2BE490A54AF222046611C79
:101DF000CCB2BB490A54E1222046611CCCB2B8499E
:101E00000A5400222046611CCCB2B5490A549DF800
:101E100009202046611CCCB2B1490A549DF8082023
:101E20002046611CCCB2AE490A549DF807202046DA
:101E3000611CCCB2AA490A549DF806202146601CB8
:101E4000C4B2A74842549DF805202046611CCCB27C
:101E5000A3490A549DF804202146601CC4B2A0483E
:101E60004254601F9E4908710025002005E09C49EE
:101E7000095C2944CDB2411CC8B2A042F7DB204620
:101E8000611CCCB296490D5421469548FEF7FAFAEA
:101E900000BF95E77FB505460024AA222146641CB1
:101EA0008F48425405222146641C4254AF222146E9
:101EB000641C425400222146641C42542146641C86
:101EC00042542146641C45549DF805202146641C5B
:101ED00042549DF804202046611CCCB280490A542B
:101EE0009DF809202146601CC4B27D4842549DF8EB
:101EF00008202046611CCCB279490A549DF80D2077
:101F00002046611CCCB276490A549DF80C2020462C
:101F1000611CCCB272490A549DF821202046611CF4
:101F2000CCB26F490A549DF820202046611CCCB2E7
:101F30006B490A54601F08710026002005E06849BB
:101F4000095C3144CEB2411CC8B2A042F7DB204646
:101F5000611CCCB262490E5421466148FEF792FAE8
:101F60007FBD2DE9F0438BB05E4800885E4909884B
:101F700090FBF1F201FB12015B480088401E814298
:101F800002D10120594948715648008858490988AA
:101F900090FBF1F201FB120155480088401E81427E
:101FA00002D10120514988714E4800885149098861
:101FB00090FBF1F201FB12014E480088801E814225
:101FC00002D101204949C872464800884A49098817
:101FD00090FBF1F201FB120147480088401E81424C
:101FE00002D10120414908713E48008843490988CF
:101FF00090FBF1F201FB120140480088401E814233
:1020000002D101203949C871364800883C49098805
:1020100090FBF1F201FB120139480088801E8142D9
:1020200002D10120314948722E480088354909887B
:1020300090FBF1F201FB120132480088801E8142C0
:1020400002D1012029498872264800882E49098832
:1020500090FBF1F201FB12012B480088C01E814267
:1020600002D10120214908731E48008827490988A8
:1020700090FBF1F201FB120124480088801E81428E
:1020800002D101201949487316480088204909885F
:1020900090FBF1F201FB12011D480088801E814275
:1020A00002D101201B4908700E4800881A4909888E
:1020B00090FBF1F201FB120117480088C01E81421B
:1020C00002D101200949887306480088401C80B26B
:1020D0000449088022E00000B7170020C80500204E
:1020E0006E0700205C0000205E00002058070020E2
:1020F00060000020620000206400002066000020D4
:10210000680000206A0000206C0000206E000020A3
:10211000700000207400002072000020B0F57A7F6B
:1021200001DD00200880F748C07860B10020F54943
:10213000C8704FF4C87364224FF496710090042065
:10214000FFF7A8FED7E1EF48808A4FF6FF7188427B
:1021500008DAEC49888AFFF72CFE4FF6FF70E94950
:102160008882C8E1E7480079F0B10020E5490871AC
:10217000E54B5A7B5B7E5B1CD9B2E44BD3ED051A71
:10218000FDEEE11A11EE900AE14BD3ED391AB0EEF3
:10219000611AD3ED381AF0EE610AD3ED371AB0EEBA
:1021A000610AFFF7EEFAA6E1D648007B90B1002065
:1021B000D4490873D748D0ED051AB0EE611AD0EDB6
:1021C000031AF0EE610AD0ED041AB0EE610AFFF7CF
:1021D00059FA90E1CB48C07A68B10020C949C87269
:1021E0002422CD49684618F079FBCB4810380FC837
:1021F000FFF7D8F97FE1C348407980B30020C14997
:102200004871C648B0F90610B0F90420B0F90200D0
:10221000C34B93ED0B0ABDEEC00A10EE103A1BB291
:10222000CDE90130CDE90321BD4890ED0A0ABDEEAC
:10223000C00A10EE100A00B2B94C009094ED090AE1
:10224000BDEEC00A10EE104A23B2B54CB4F914200A
:10225000B4F91210B4F91000FFF7DEF84BE1FFE714
:10226000A8488079A8B10020A6498871AC4890EDB3
:10227000130AF2EE040A20EE200ABDEEC00A10EEA8
:10228000100A02B2A7480188A7480068FFF754F86F
:1022900031E1A648007888B30020A4490870994825
:1022A000C07B78B100209749C873A148807AA04CC0
:1022B0000090B4F90830B4F9062061792079FEF76E
:1022C000DFFF18E18F48007C002893D000208D4963
:1022D00008749748007E9649B1F91610944AB2F9ED
:1022E0001420934CCDE900210290A37CB4F9102076
:1022F000B4F90E10207BFEF74BFFFCE0FFE78148AE
:10230000C079E0B300207F49C87100BF15E001210A
:102310008140884A1278114049B1874931F810103C
:1023200001F2DC5109B207AA22F8101003E00021E3
:1023300007AA22F81010411CC8B20828E7DB0022C7
:10234000BDF82A0080B2BDF8281089B2CDE9030299
:1023500005920291BDF8260080B2BDF8241089B222
:10236000CDE90010BDF81E40A3B2BDF81C40A2B2DA
:10237000BDF82240A1B2BDF82040A0B200E002E0CA
:10238000FEF74DFEB7E05F48407AE0B300205D49BC
:1023900048726A4890ED0A1BB0EE410AF0EE610AFD
:1023A00051EC100B18F064FC84B2644890ED081BEB
:1023B000B0EE410AF0EE610A51EC100B18F058FC37
:1023C00085B25E4890ED061BB0EE410AF0EE610A60
:1023D00051EC100B18F04CFC86B2584890ED041BE1
:1023E000B0EE410AF0EE610A51EC100B18F040FC1F
:1023F00087B2524890ED021BB0EE410AF0EE610A3E
:1024000051EC100B00E01CE018F032FC1FFA80F8D1
:102410004A4890ED001BB0EE410AF0EE610A51EC23
:10242000100B18F025FC1FFA80F90020CDE90140BF
:1024300033463A464146009503904846FEF755FD1F
:1024400059E03048807A90B100202E4988723C498A
:1024500091ED000ADFED3B0A20EE200ABCEEC00A37
:1024600010EE101A88B20021FEF7F5FC43E0254873
:10247000407B68B10020234948733348C078324C10
:102480000090A379E2796179A078FEF795FC32E0BB
:102490001C48807B38B300201A4988732B4890ED84
:1024A000021BB0EE410AF0EE610A51EC100B18F07D
:1024B000C0FB0446254890ED041BB0EE410AF0EE47
:1024C000610A51EC100B18F0B4FB05461F4A117855
:1024D0001D4A5079DFED1E0A9FED1E0A23462A464B
:1024E000FEF7A9FB07E00748407C20B1FEF76BFB35
:1024F000002004494874FEF757FB00F02EFF0BB094
:10250000BDE8F0835807002000110020C41100200E
:1025100078010020EC160020C8150020C40300201C
:102520001812002020040020F00300207400002076
:10253000DA2E002079000020B4080020381700208F
:10254000D80300200000C84264010020902D002024
:102550000000E4430000F6428749097839B9AA2807
:1025600005D10121844A11708449087063E08249D1
:102570000978012907D1AF2805D102217E4A1170BF
:102580007E49487057E07C490978022905D103212A
:10259000794A1170794988704DE0774909780329A3
:1025A00005D10421744A11707449C87043E072491E
:1025B000097804290AD105216F4A11706F49087101
:1025C0006F49087000216F4A117034E06A49097838
:1025D00005291DD16A490978002919DD684909785A
:1025E000502915DA66490978491E654A117065490E
:1025F0000978644A1278521C624B1A70491D5F4A6E
:1026000050545F490978B1B906215B4A117012E054
:102610005949097806290BD10021574A11705949A7
:102620000978491D554A50540121574A117002E05A
:102630000021514A117070472DE9F04105460024F0
:10264000AA222146641C5148425405222146641C9A
:102650004254AF222146641C4254A0222146641CED
:10266000425400222146641C425400270BE03846A5
:10267000791CCFB22A5C2046611CCCB243490A5473
:10268000322C00DD02E0E85D0028F0D100BF601FC1
:102690003E4908710026002005E03C49095C3144B0
:1026A000CEB2411CC8B2A042F7DB2046611CCCB2BE
:1026B00036490E5421463548FDF7E4FEBDE8F08169
:1026C0002DE9F34105460024AA222146641C2F4827
:1026D000425405222146641C4254AF222146641C08
:1026E0004254A1222146641C425400222146641C0B
:1026F00042549DF807202146641C42549DF8062050
:102700002146641C42549DF805202046611CCCB231
:102710001E490A549DF804202046611CCCB21B4976
:102720000A5400270BE03846791CCFB22A5C2046B9
:10273000611CCCB215490A54322C00DD02E0E85D80
:102740000028F0D100BF601F10490871002600204A
:1027500005E00E49095C3144CEB2411CC8B2A0422A
:10276000F7DB2046611CCCB208490E5421460748CD
:10277000FDF788FEBDE8FC8176000020A007002060
:102780007500002058000020590000206E0700202E
:1027900010B5F7488078F749087008460078022895
:1027A00002D10DF04FFB03E0F248007809F0D2F9B6
:1027B00010BD002801DC002104E0072801DD07210D
:1027C00000E0014608460021EB4A22F8101070474D
:1027D000014600201DE0E84A32F81020B2F5FA7FE9
:1027E0000EDAE54A32F810200A44E34B23F81020B1
:1027F00001228240E14B1B781A43E04B1A7006E03D
:1028000001228240DD4B1B789343DC4A1370421C4B
:10281000D0B20828DFDB704770B5DDE904452BB185
:102820000E882EB10E8806440E8001E001260E802F
:102830000E88964202DB2C7000260E8070BD7CB59F
:102840000546CF480079022824DCCE48407808BBF2
:10285000CD484078B8B1CC480078A0B1CA48C0781B
:1028600050B1C748407818B10020C549C87214E07B
:102870000120C349C87210E00120C44948720220F7
:10288000BF49C87209E00120C049C8710320BC4992
:10289000C87202E00420BA49C872B948407B0028D7
:1028A00031D1B748007B002837D0B548C07A38B955
:1028B000B348007BB2494873B5A0FFF7BDFE2CE0DA
:1028C0000020AF4908730846C07A012803D1B3A09D
:1028D000FFF7B2FE21E0AA48C07A022803D1AFA0D8
:1028E000FFF7AAFE19E0A648C07A032803D1ABA0DF
:1028F000FFF7A2FE11E0A248C07A04280DD1ABA0D8
:10290000FFF79AFE09E09E48007B10B9ADA0FFF7E3
:1029100093FE9B48007B9A494873AF48B0F9040086
:1029200010F5967F7EDAAC48B0F90600002803DD8A
:10293000A948B0F9060003E0A748B0F906004042F4
:1029400000EE100AB8EEC00AF3EE0E0AB4EEE00A8A
:10295000F1EE10FA14DDA048B0F9020000EE100A02
:10296000B8EEC00AFBEE0E0AB4EEE00AF1EE10FA81
:1029700006D28348C07B30B901208149C87302E088
:1029800000207F49C8739448B0F9020010F5967F83
:1029900012DA9148B0F90000B0F5967F0CDD8E4850
:1029A000B0F9060010F5967F06DA01208B49087011
:1029B00002207349C8731BE08748B0F9020010F584
:1029C000967F12DA8448B0F9000010F5967F0CDA91
:1029D0008148B0F90600B0F5967F06DD01207F49F9
:1029E000087002206649C87302E000207B49087025
:1029F00000246348407B28B100BF4FF496707849AB
:102A0000088004E002244FF4FA70754908805C489D
:102A10000C30CDE900407148037871480288714953
:102A2000284600E002E0FFF7F7FE08E000205449E6
:102A3000C8730846007B022801D10120087366484C
:102A4000B0F9040010F5AF7F03DD00204C49887316
:102A500002E001204A4988737CBD002005E0002186
:102A60005D4A22F81010411CC8B20428F7DB5A480E
:102A7000B0F90400002802DD0020574988800020BA
:102A8000554908804880C8803D48407B48B1564839
:102A9000407918B903203A49487502E001203849C5
:102AA0000872704700B503465048008818444F49E3
:102AB000088008460088B0F5FA7F45DB00200880D2
:102AC0002E48007800F00F000F2802D12C488079A2
:102AD00030B147480078401C40B24549087005E0D5
:102AE00043480078401E40B241490870404890F980
:102AF000000002280ADB00203D490870012020491F
:102B0000C8712249C872FFF7A8FF16E0384890F94B
:102B1000000010F1020F10DC002035490870184841
:102B2000C07950B100201649C8711849C8721448BC
:102B3000007C10B10220124948752E4800882E49A9
:102B4000088000202B49088000BDF0B505AC70CC92
:102B50005CB100270F80CF7847B98F7817B18F7895
:102B60007F1C8F700127CF7052E047E050E00000DB
:102B7000B717002078000020A0080020790000206E
:102B8000001100205204002030110020A81700205E
:102B9000556E6C6F636B204F4B210000556E6C6F50
:102BA000636B204661696C2100000000506F7765FF
:102BB00072204C6F772C556E6C6F636B2046616989
:102BC0006C210000204643204F7574707574204CB2
:102BD0006F636B6564212000B40800207E00002034
:102BE000800000207C000020640100209400002070
:102BF000960000207A000020820000200027CF707D
:102C00000F8807440F800F889F4201DD01278F70D6
:102C10008F78974202DD357000278F70F0BD1EB5AA
:102C20000446BE48407B00287DD1BC48807B0028FC
:102C300072D0BB48B0F9020010F5AF7F17DAB84880
:102C4000B0F90000B0F5AF7F11DDB548B0F9040070
:102C500010F5AF7F0BDAB248B0F90600B0F5AF7FE0
:102C600005DD0120AF490870AF49087004E000207D
:102C7000AC490870AC490870A948B0F90200B0F539
:102C8000AF7F15DDA648B0F90000B0F5AF7F0FDDCE
:102C9000A348B0F9040010F5AF7F09DAA048B0F9F5
:102CA000060010F5AF7F03DA0120A049087002E0AA
:102CB00000209E4908709A48B0F90200B0F5AF7F35
:102CC00015DD9748B0F90000B0F5AF7F0FDD9448EF
:102CD000B0F9040010F5AF7F09DA9148B0F90600A9
:102CE000B0F5AF7F03DD01209149087002E00020BC
:102CF0008F4908708A48B0F90200B0F5AF7F03DD54
:102D000001208C49087007E08548B0F9020032289C
:102D100002DA00208749087087480121CDE90010B8
:102D20008148037800E020E04FF47A72834920461E
:102D3000FFF772FD8048401E0121CDE9001079485F
:102D400003784FF47A727E492046FFF765FD7D488F
:102D50000121784A12784FF47A73CDE9002102906C
:102D6000052279492046FFF7F0FE1EBD10B5044646
:102D70006A480078002871D07448007898BB002019
:102D80003AE001218140724A12781140B1B1714993
:102D900031F8101009B2A1F2DC5100EE101AB8EEB1
:102DA000C00AF7EE040A20EE200ABDEEC00A10EEBB
:102DB000101A09B25A4A22F8101003E00021584AAA
:102DC00022F81010564931F9101011F5FA7F01DC84
:102DD00061490CE0524931F91010B1F5FA7F03DD79
:102DE0004FF4FA7103E00AE04D4931F910104C4AF2
:102DF00022F81010411CC8B20828C2DB81E05348F9
:102E0000007801283FD100203AE001218140504A5A
:102E100012781140B1B1514931F8101009B2A1F244
:102E20004C4100EE101AB8EEC00AF7EE040A20EE8C
:102E3000200ABDEEC00A10EE101A09B2384A22F874
:102E4000101003E00021364A22F81010344931F9FD
:102E5000101011F5FA7F02DC3F490CE05DE03049CB
:102E600031F91010B1F5FA7F02DD4FF4FA7102E08A
:102E70002B4931F910102A4A22F81010411CC8B20F
:102E80000828C2DB3DE0002039E001218140304AC2
:102E900012781140B1B1324931F8101009B2A1F5E0
:102EA000806100EE101AB8EEC00ADFED2E0A20EEA7
:102EB000200ABDEEC00A10EE101A09B2184A22F814
:102EC000101003E00021164A22F81010144931F9BD
:102ED000101011F5FA7F01DC1F490BE0104931F9A0
:102EE0001010B1F5FA7F02DD4FF4FA7102E00C49DF
:102EF00031F910100A4A22F81010411CC8B20828F3
:102F0000C3DB2046FFF79BFC2046FFF788FE2046E8
:102F1000FFF75EFC2046FFF7C5FD10BD0011002045
:102F2000B40800208F0000208E00002090000020B8
:102F3000910000209200002019120020840000203F
:102F400086000020C40300208A00002078000020B2
:102F500079000020B82700200CFEFFFFC8270020C2
:102F6000842E00206666263F014600201AE0B74AFC
:102F7000125C72B9B64A32F8102042F210739A42CB
:102F80000BDAB34A32F810200A44B14B23F8102070
:102F900003E00022AE4B23F810200022AB4B1A5462
:102FA000421CD0B20228E2DBA9480088B0F57A7F43
:102FB00004DCA7484088B0F57A7F03DD0020A54AED
:102FC000D07102E00120A34AD071704710B50446C9
:102FD0002046FFF7C9FF10BD10B50023002204E012
:102FE000845C1C44E3B2541CE2B24C1E9442F7DCF5
:102FF000421812F8012C9A4200D010BDC278512A12
:103000003AD1427972B98279934C2270C27952B224
:10301000924C2270027A52B2914C2270427A914CB8
:10302000227029E04279012A26D182798A4C2270C5
:10303000C279120212B2047A22438B4C2280427A65
:10304000120212B2847A2243884C2280C27A12027F
:1030500012B2047B2243864C2280427B120212B2BF
:10306000847B2243834C2280C27C7E4C22700122CE
:10307000764C2270804C2270C278522A14D1427948
:103080004AB9C279847942EA04227C4C2280012226
:103090006E4C627008E04279012A05D1C2798479C8
:1030A00042EA0422764C2280C278532A59D14279CE
:1030B00052BB8279120212B2C4792243714C22802F
:1030C000027A120212B2447A22436F4C2280827A30
:1030D000120212B2C47A22436C4C2280027B12028A
:1030E00012B2447B22436A4C2280827B120212B2CB
:1030F000C47B2243674C2280027C120212B2447CC1
:103100002243654C22802CE04279012A29D1827920
:10311000120212B2C4792243604C2280027A120257
:1031200012B2447A22435E4C2280827A120212B298
:10313000C47A22435B4C2280027B120212B2447B8F
:103140002243594C2280827B120212B2C47B22435A
:10315000564C2280027C120212B2447C2243544C10
:10316000228000BF49E710B504465248007838B9BC
:10317000AA2C05D101204F4908704F48047063E024
:103180004C480078012807D1222C05D1022049495A
:1031900008704948447057E046480078022805D135
:1031A000032044490870444884704DE04148007849
:1031B000032805D104203F4908703F48C47043E00C
:1031C0003C48007804280AD105203A4908703A485A
:1031D00004713A48047000203949087034E03548D9
:1031E0000078052819D135480078002815DD3348C6
:1031F0000078401E3149087031480078304909781C
:10320000491C2F4A1170401D2B490C542B48007843
:10321000D0B906202749087016E02648007806280D
:103220000FD100202349087025480078401D22490D
:103230000C5423480078801DC1B21F48FFF7CCFE14
:1032400002E000201B49087010BD0000DE000020D5
:10325000E000002030110020980000209A0000209B
:103260009B000020990000209C0000209E00002070
:10327000A0000020A200002054000020A400002094
:10328000A6000020A8000020AA000020AC0000201A
:10329000B4000020B6000020B8000020AE000020DE
:1032A000B0000020B2000020BA000020BC000020C6
:1032B000BE000020E5000020C4080020E40000203B
:1032C000DC000020704700BFFEE700BFFEE700BF44
:1032D000FEE77047704710B580200FF0D6FD10B1A3
:1032E00080200FF028FE10BD10B508F008FE10BDBC
:1032F00010B508F04FFF10BD10B50CF0ADFA10BDC1
:1033000010B509F08EFC10BD10B509F05AFD10BDC6
:1033100010B509F012FE10BD10B509F0EEFE10BD9B
:1033200010B50CF0EFFE10BD10B516F0E5F9012058
:1033300016F0EDF910BD70B5024600200AE0145CED
:10334000864B1D781B785B1C844E3370844B5C5518
:10335000431CD8B28842F2DB70BD10B57F480078BC
:103360008049097888425BDD7C4800787D4909788E
:10337000401A3F281BDB00207B4908703F207B4917
:10338000087000200BE077490A780978491C754BD2
:10339000197073498A5C754B411C5A54C8B23F2856
:1033A000F1DB40227149002017F031FA9FE06E48AE
:1033B0000078401C6C490870084600786C49097810
:1033C0008842F3D100206849087064480078654954
:1033D0000978401A65490870002015E05F490978AE
:1033E000604A1278891A814208DD5E4909780144F1
:1033F0005B4A525C5D4B411C5A5403E000225B4B1C
:10340000411C5A54411CC8B23F28E7DB534800789E
:103410005449087040225549002017F0F8F966E039
:103420004E4800784F490978884260DA4D48007864
:10343000C0F580704949097808443F281BDB00200B
:10344000494908703F204949087000200BE0454970
:103450000A780978491C434B197041498A5C434BEF
:10346000411C5A54C8B23F28F1DB40223F4900209A
:1034700017F0CDF93BE03C480078401C3A49087011
:10348000084600783A490978884230D10020364908
:10349000087034480078404230490978084433497C
:1034A0000870002018E02F490978C1F580712B4A77
:1034B00012781144814209DD2A4909780144C9B2D0
:1034C000274A525C294B411C5A5403E00022274BE7
:1034D000411C5A54411CC8B23F28E4DB1F48007805
:1034E0002049087040222149002017F090F910BDB2
:1034F00010B50446012C02D0032C11D10EE059B9AD
:1035000023B1012B05D0022B04D100E000BF4020E5
:1035100010BD00BF00BF00BF00BF01E00120F7E702
:1035200000BF0020F4E72DE9F04706468846144620
:103530009946089F022E02D0032E0CD10AE00125E5
:1035400004E0605DFFF708F8681CC5B22078A84267
:10355000F7DA00E000BF00BFBDE8F087E800002018
:10356000F6080020E7000020E9000020F60900200E
:10357000E600002017F03EB870470020704700209A
:1035800070470020704700207047002070470020DF
:1035900070470020704700207047002070470020CF
:1035A00070470020704700207047002070470020BF
:1035B000704717F046B870470020704700207047EA
:1035C00016F08ABE704700000179C27801EB022133
:1035D000F84A11808179427901EB0221F64A118083
:1035E0008178F64A517070470020F549087000BF95
:1035F00028E0032818DA9FEDF30AF0492C3101EB9B
:10360000800181ED000A9FEDEF0AEC49383101EBB2
:10361000800181ED000A9FEDEB0AE849443101EB9E
:10362000800181ED000A03E00021E44AA2F8501075
:103630000022E249143141F82020103941F82020BD
:10364000411CC8B20428D4DB704710B50446DB48DF
:103650004178807881421BD0FFF7C6FFDA48C079F5
:1036600068B9D948407E012809D1D848807810B976
:10367000D648407918B10120D049087008E00020F0
:10368000CE490870D2A0FEF7D7FF0020CB49487082
:10369000CA484078062877D005DC76D2DFE800F00B
:1036A00075103858B5F6092870D004DC07286ED09C
:1036B00008286AD179E20A286AD0A028F9D13BE02B
:1036C000BE48007818B3C048407D58B9BC4800785F
:1036D000E8B90120BA490870C1A0FEF7ADFF05F0B6
:1036E000DAF914E0B848407D022806D1BFA0FEF701
:1036F000A3FF0020B149487009E0B348407D02288B
:1037000005DDBEA0FEF798FF0020AC49487051E3EC
:10371000AD48407D022805D1BBA0FEF78DFF05F026
:10372000C9F908E0A848407D28B9BAA0FEF784FF8F
:103730000020A24948703DE3A348407B38B1B8A0BF
:10374000FEF77AFF0020A04908739C49487031E3D6
:103750009948008800EE100AB8EE400A974880EDBC
:103760000D0A95480088A0B3924800884FF47A71FA
:10377000484300EE100AF8EEC00A8F48008800287F
:1037800007DC9FED900A1CE0F6E012E366E2B4E18C
:10379000B9E2A84890ED011A8748008800EE100AA7
:1037A000B8EE400AB4EEC01AF1EE10FA03D2A14806
:1037B00090ED010A05E08048008800EE100AB8EE9E
:1037C000400A80EE801ABCEEC10A7C4880ED070AF0
:1037D00003E0FFE700217948C1617848C06818B963
:1037E00095A0FEF729FF0AE07448C169C0688142CC
:1037F00005D293A0FEF720FF0020704948706F4863
:10380000C06801196D48C160D4E26B48008840422D
:1038100000EE100AB8EEC00A684880ED0D0A66484E
:103820000088A0B3634800884FF47A71484300EEE3
:10383000100AF8EEC00A60480088002802DC9FEDFC
:10384000610A1BE07B4890ED020AB1EE401A5A482B
:10385000008800EE100AB8EE400AB4EEC01AF1EE8D
:1038600010FA05D2734890ED020AB1EE400A05E065
:103870005148008800EE100AB8EE400A80EE801A27
:10388000BCEEC10A4D4880ED070A04E01BE0FFE7EB
:1038900000214A48C1614948C06818B96BA0FEF7C9
:1038A000CBFE0AE04548C169C068814205D26AA0E2
:1038B000FEF7C2FE0020414948704048C068011927
:1038C0003E48C16076E23C48008800EE100AB8EE3F
:1038D000400A3A4880ED0B0A3748008878B33548EB
:1038E00000884FF47A71484300EE100AF8EEC00ADF
:1038F00031480088002802DC9FED320A17E04D486D
:1039000090ED001A2C48008800EE100AB8EE400A2C
:10391000B4EEC01AF1EE10FA03D2464890ED000A58
:1039200005E02548008800EE100AB8EE400A80EE57
:10393000801ABCEEC10A214880ED050A03E0FFE7CA
:1039400000201E4948611D48406818B945A0FEF78F
:1039500073FE0BE01948406918494968884205D24E
:1039600043A0FEF769FE00201449487013484068E0
:103970002044124948601DE20F480088404200EE92
:10398000100AB8EEC00A0D4880ED0B0A0A480088FC
:1039900078B1084800884FF47A71484300EE100A65
:1039A000F8EEC00A0448008800286ADC9FED050A8A
:1039B0007FE086E0F4000020F6000020580D002093
:1039C000F800002000000000001100206401002029
:1039D0004643205374617465204572726F722100F2
:1039E00054616B65206F66662100000054616B6551
:1039F000206F6666204F4B2100000000434D44209D
:103A00004572726F722100004C616E64696E6721AD
:103A1000000000004C616E64696E67204F4B21000E
:103A2000456D657267656E63792073746F70204FA2
:103A30004B21000020110020476F207570210000ED
:103A4000476F207570204F4B21000000476F2064A6
:103A50006F776E2100000000476F20646F776E2043
:103A60004F4B2100476F20616865616421000000B1
:103A7000476F206168656164204F4B2100000000A2
:103A8000FFE7E54890ED001AE448008800EE100AD0
:103A9000B8EE400AB4EEC01AF1EE10FA03D2DE48D6
:103AA00090ED000A05E0DD48008800EE100AB8EE4F
:103AB000400A80EE801ABCEEC10AD94880ED050AA2
:103AC00002E00020D6494861D548406818B9D5A021
:103AD000FEF7B2FD0BE0D2484069D14949688842FF
:103AE00005D2D3A0FEF7A8FD0020CD494870CC48F0
:103AF00040682044CA4948605CE1C848008800EE3C
:103B0000100AB8EE400AC64880ED0C0AC348008887
:103B100078B3CA4800884FF47A71484300EE100A1F
:103B2000F8EEC00ABD480088002802DC1FED5B0AE1
:103B300017E0B94890ED001AB848008800EE100A66
:103B4000B8EE400AB4EEC01AF1EE10FA03D2B24851
:103B500090ED000A05E0B148008800EE100AB8EECA
:103B6000400A80EE801ABCEEC10AAD4880ED060A1C
:103B700003E0FFE70021AA488161A948806818B9DD
:103B8000AFA0FEF759FD0AE0A5488169806881422F
:103B900005D2AEA0FEF750FD0020A1494870A04814
:103BA000806801199E48816004E19C480088404279
:103BB00000EE100AB8EEC00A994880ED0C0A97484A
:103BC000008878B39D4800884FF47A71484300EE2E
:103BD000100AF8EEC00A91480088002802DC1FEDA8
:103BE000870A17E08C4890ED001A8C48008800EE98
:103BF000100AB8EE400AB4EEC01AF1EE10FA03D281
:103C0000854890ED000A05E08448008800EE100A1F
:103C1000B8EE400A80EE801ABCEEC10A804880ED02
:103C2000060A03E0FFE700217D4881617C48806847
:103C300018B989A0FEF700FD0AE07948816980681B
:103C4000814205D287A0FEF7F7FC00207449487036
:103C500073488068011972488160ABE06F48008842
:103C600000B26F49A1F850006C48008878B37348DF
:103C700000884FF47A71484300EE100AF8EEC00A4B
:103C800066480088002802DC1FEDB20A17E062488F
:103C900090ED031A6148008800EE100AB8EE400A61
:103CA000B4EEC01AF1EE10FA03D25B4890ED030AAD
:103CB00005E05A48008800EE100AB8EE400A80EE8F
:103CC000801ABCEEC10A564880ED080A03E0FFE7FF
:103CD0000021534801625248006918B965A0FEF7F7
:103CE000ABFC0AE04E48016A0069814205D264A03B
:103CF000FEF7A2FC00204A494870494800690119B2
:103D00004748016156E045480088404200B24449B6
:103D1000A1F850004148008878B3484800884FF423
:103D20007A71484300EE100AF8EEC00A3B4800885A
:103D3000002802DC1FEDDD0A17E0374890ED031A7A
:103D40003648008800EE100AB8EE400AB4EEC01AF9
:103D5000F1EE10FA03D2304890ED030A05E02F4847
:103D6000008800EE100AB8EE400A80EE801ABCEE21
:103D7000C10A2B4880ED080A03E0FFE7002128482C
:103D800001622748006918B941A0FEF755FC0AE016
:103D90002348016A0069814205D240A0FEF74CFC2D
:103DA00000201F4948701E48006901191C48016124
:103DB00000E000BF00BF1A48407808B9FFF714FCC4
:103DC0001748417881703948407BB0B1144A383285
:103DD000A2F1140101F1080001F0EDFE104A443295
:103DE0003349A2F10C0001F0C7FE0D4890ED0D0A19
:103DF00080ED100A80ED130A0DE02D48343890ED67
:103E00000D0A074880ED090A2948343890ED0E0A5A
:103E1000034880ED0A0A10BD20110020F6000020A2
:103E2000580D0020476F206261636B210000000085
:103E3000476F206261636B204F4B2100F40000202C
:103E4000476F206C6566742100000000476F206C8E
:103E5000656674204F4B2100476F20726967687454
:103E600021000000476F207269676874204F4B2162
:103E7000000000005475726E206C656674210000AD
:103E80005475726E206C656674204F4B21000000E3
:103E90005475726E20726967687421005475726E71
:103EA000207269676874204F4B21000000110020C8
:103EB000AC010020AA49097839B9AA2805D1012105
:103EC000A74A1170A749087070E0A549097801292F
:103ED00007D1302805D10221A14A1170A1494870AB
:103EE00064E09F490978022905D103219C4A117099
:103EF0009C4988705AE09A490978032905D1042120
:103F0000974A11709749C87050E09549097804297B
:103F10000AD10521924A117092490871924908709C
:103F20000521924A117041E08D490978052917D180
:103F30008D490978002913DD8B490978491E8A4A81
:103F400011708A490A780978491C884B197085498B
:103F500088548549097829BB0621814A117025E0DA
:103F60007F49097806291ED100217D4A11707D49BB
:103F70007E4A127888547E49097899B9002105E073
:103F8000784A525C7B4B5A544A1CD1B2774A127819
:103F90009142F5DD75490978491C774A1170012174
:103FA000734A117002E000216D4A1170704701469A
:103FB0006F48007800287DD000206D4B18700022DB
:103FC00000BF05E06B4B1B5C1344DAB2431CD8B254
:103FD000694B1B785B1E8342F4DC6648664B1B789A
:103FE000184410F8010C904200D070476148C07826
:103FF000312875D05F48C078322871D15D48C079CA
:104000005C4B9B7940EA032000B200EE100AB8EE48
:10401000C00AB1EE400ADFED590A80EE201A584876
:1040200080ED041A5348407A524B1B7A40EA032031
:1040300000B200EE100AB8EEC00ADFED500A80EEC2
:10404000201A4F4880ED031A4A48C07A494B9B7AA0
:1040500040EA032000B200EE100AB8EEC00ADFED1D
:10406000470A80EE201A464880ED051A4148407BF9
:10407000404B1B7B40EA032000B200EE100AB8EE72
:10408000C00AB1EE400ADFED3D0A80EE201A3C483E
:1040900080ED071A3748C07B364B9B7B40EA0320F4
:1040A00000B200EE100AB8EEC00ADFED340A80EE6E
:1040B000201A00E018E0324880ED061A2D48407CB6
:1040C0002C4B1B7C40EA032000B200EE100AB8EE35
:1040D000C00ADFED2A0A80EE201A294880ED081A6E
:1040E0000020284B188000BF26480088B0F57A7F52
:1040F00008DA244800880844224A10800120204A17
:10410000507002E000201E4A507000BF6DE710B5ED
:1041100004461D48407B78B90020194908701B48A7
:1041200090ED0D0A084680ED010A184890ED0E0A40
:10413000084680ED020A02E0012011490870104A89
:104140002432A2F1200101F1080001F034FD0C4AF3
:104150003032A2F12C0101F1140001F02CFD10BD50
:10416000FF000020E80E0020FE00002000010020DB
:10417000FB000020E80D0020FA0000200000C842EB
:10418000AC0D0020FC000020001100207801002070
:1041900010B52DED028BF0EE408AB0EE608A2A4811
:1041A000C0ED008A80ED018A02469FED280A011DBC
:1041B00002F0FFFDBDEC028B10BD234880ED060A26
:1041C000D0ED060A9FED221AF4EEC10AF1EE10FAC4
:1041D00002D8DFED1F0A0FE01B48D0ED060A9FED65
:1041E0001D1AF4EEC10AF1EE10FA02DDDFED190A34
:1041F00002E01548D0ED060A1348C0ED060A7047E4
:10420000114880ED070AD0ED070A9FED131AF4EE6E
:10421000C10AF1EE10FA02D8DFED0F0A0FE00A48EA
:10422000D0ED070A9FED0D1AF4EEC10AF1EE10FA77
:1042300002DDDFED0A0A02E00348D0ED070A02487A
:10424000C0ED070A70470000E80F00200000484357
:10425000000016C3000016430000C8C20000C84298
:1042600001B534488088282802DD01203249487091
:104270003248407B10B900202F4948703048807880
:1042800060B12F48C07948B12B48407830B12B48F5
:10429000807E012802D12849087002E000202649CA
:1042A000087028488078012813D10020224988709E
:1042B00008460178684600F02DFA234890ED0C1A64
:1042C000F0EE410A90ED0B1AB0EE410AFFF760FFE5
:1042D0002EE01C48807802281AD1002016498870E8
:1042E00008460178684600F0BEFC184890ED061AB2
:1042F000F0EE410A90ED051AB0EE410AFFF748FFD3
:104300001248D0ED070AB0EE600AFFF779FF0FE020
:104310000948807860B9012007498870DFED0C0AF0
:104320009FED0B0AFFF734FF9FED090AFFF768FFC7
:1043300008BD00006C0300200101002000110020D6
:1043400064010020DA2E0020081000204C1000200C
:10435000000000000CB5B1F5FA7F06DA00EE101A85
:10436000B8EEC00AFB4A82ED000AFB4A92ED050A4C
:10437000FA4A82ED000AF84A92ED060AF74A82EDFF
:10438000010AF44A92ED000ADFEDF50A20EE200A58
:10439000F14AD2ED030A20EE200A82ED050AED4A29
:1043A00092ED000ADFEDEE0A20EE200AEA4AD2ED95
:1043B000040A20EE200A82ED060A02784FF47A738E
:1043C00093FBF2F200EE102AB8EEC00AE24AD2EDF8
:1043D000050AE24A92ED001A70EEC10A20EE200AA8
:1043E0008DED000A027893FBF2F200EE102AB8EE8F
:1043F000C00AD94AD2ED060AD84A92ED011A70EEE7
:10440000C10A20EE200A8DED010A9DED000AD24A74
:10441000D2ED070A70EE600A92ED070A9FEDD11AFD
:1044200001EE200A82ED070A9DED010AD2ED080A8D
:1044300070EE600A92ED080A9FEDCA1A01EE200A9A
:1044400082ED080AD2ED070AC74AB2F9002000EE51
:10445000102AB8EEC00A30EE800ABF4A82ED090A7F
:10446000D2ED080AC04AB2F9022000EE102AB8EED6
:10447000C00A30EE800AB84A82ED0A0A0CBD017803
:1044800001EE901AF8EE611A9FEDB82A61EE821AD9
:10449000B0EE611AB649497929B10021AE4A1170CE
:1044A000B44A11800EE0B3490988B1F57A7F06DA83
:1044B0000178B04A12881144AE4A118002E001210D
:1044C000A54A1170AA490989A34A5180A849C988F7
:1044D00049420AB2A0498A80A5494979002964D095
:1044E000DFEDA51A60EEA11AFDEEE11A11EE901AA9
:1044F00009B2994AD180DFEDA01A60EE211AFDEED3
:10450000E11A11EE901A0AB293490A81B1F9061024
:1045100011F13C0F02DC6FF03B0109E08E49B1F96B
:1045200006103C2901DD3C2102E08B49B1F906105F
:10453000894AD1801146B1F9081011F1500F02DCFF
:104540006FF04F0109E08449B1F90810502901DDED
:10455000502102E08049B1F908107F4A1181874952
:10456000C97909B1012100E00021012909D184495B
:10457000B1F900107C4A11808249B1F900105180D4
:1045800017E08149D1ED0C1AFDEEE11A11EE901AF7
:1045900009B2754A11807C49D1ED0D1AFDEEE11A80
:1045A00011EE901A09B2518003E000216E4A118089
:1045B000518069490978E9BB6749B1F90210664A37
:1045C000B2F90620891A01EE901AF8EEE11A6F4945
:1045D00091ED002A31EEC22AD1ED001ADFED612AF9
:1045E00042EE821AC1ED001A5B49B1F90420B1F91B
:1045F0000810511A01EE901AF8EEE11A634991ED94
:10460000012A31EEC22AD1ED011ADFED562A42EE1F
:10461000821AC1ED011AD1ED001A91ED022A31EE94
:10462000C22AD1ED021ADFED4F2A42EE821AC1ED05
:10463000021A00E019E0D1ED011A91ED032A31EEE2
:10464000C22AD1ED031ADFED472A42EE821AC1EDEC
:10465000031AD1ED021A4049C1ED031A4B49D1EDBD
:10466000031A3D49C1ED041A38E0DFED491A21EE85
:10467000212AF7EE002AC2EE821AB7EE002A71EE66
:10468000821AF7EE002A82EEA12A3349D1ED031AED
:10469000DFED402A72EEE12AD1ED031A42EE221A32
:1046A000C1ED031ADFED3A1A21EE212AF7EE002AB6
:1046B000C2EE821AB7EE002A71EE821AF7EE002AD5
:1046C00082EEA12AD1ED041ADFED322A72EEE12A40
:1046D000D1ED041A42EE221AC1ED041A704701B559
:1046E00023488078012811D12B4890ED381AF0EE3C
:1046F000410A90ED371AB0EE410A6846FFF7BFFE57
:10470000264881886846FFF725FE02E0012012490D
:10471000087008BDE9B1104A92ED090ADFED110AEF
:1047200020EE200AD2ED050A9FED1D1A01EE200AA7
:10473000D2ED070A9FED0B1A01EE200A82ED0B0A5B
:1047400092ED0A0ADFED070A20EE200AD2ED060AF2
:1047500028E034E00C0100200810002010010020A7
:104760000AD7233CCDCC4C3E060100206F12833A81
:10477000DA2E0020040100209A9919C0301100207F
:10478000A0000020A2000020781000203C10002093
:104790009CC4A03F00000000780100206C030020B2
:1047A000CDCC4C3F1FED021A01EE200AD2ED080AD3
:1047B0001FED141A01EE200A82ED0C0A06E01FED2F
:1047C0000B0A034A82ED0C0A82ED0B0A70470000C7
:1047D00008100020B1F5FA7F06DA00EE101AB8EEE4
:1047E000C00AFD4A82ED000AFC4A92ED030AFC4A27
:1047F00082ED000AF84A92ED000ADFEDFA0A20EE97
:10480000200AF64AD2ED020A20EE200A82ED030ABF
:1048100002784FF47A7393FBF2F200EE102AB8EEAE
:10482000C00AEE4AD2ED030AED4A92ED001A70EE8C
:10483000C10A20EE200AE94A82ED040A7047B0EE70
:10484000601A017801EE901AF8EE611A9FEDE62ADF
:1048500061EE821AF0EE610AE449097B29B1002178
:10486000DE4A1170E24A11800EE0E1490988B1F593
:104870007A7F06DA0178DE4A12881144DC4A118018
:1048800002E00121D54A1170D849098A494209B28A
:10489000D24A5180D549097BF1B1DFEDD61A60EEDD
:1048A000211AFDEEE11A11EE901A09B2918011461B
:1048B000B1F9041011F1500F02DC6FF04F0109E063
:1048C000C649B1F90410502901DD502102E0C34965
:1048D000B1F90410C14A9180C049097859BBBF4958
:1048E000B1F90210BD4AB2F90420891A01EE901AFA
:1048F000F8EEE11AC04991ED002A31EEC22AD1ED5D
:10490000001ADFEDBE2A42EE821AC1ED001AD1ED87
:10491000001A91ED012A31EEC22AD1ED011ADFED24
:10492000B72A42EE821AC1ED011AD1ED011AAB4944
:10493000C1ED021A1CE0DFEDB21A60EEA11AB7EE6B
:10494000002AC2EE212AF7EE001A72EEA11AF7EE43
:10495000002A82EEA12AA149D1ED021ADFEDA92A8F
:1049600072EEE12AD1ED021A42EE221AC1ED021ACC
:10497000704701B59D488078022811D1A24890ED7A
:10498000381AF0EE410A90ED371AB0EE410A684647
:10499000FFF755FF9D4881886846FFF71BFF02E03F
:1049A00001208E49087008BD9949097804297ED0F4
:1049B00007DC79B1012921D0022941D003296BD12B
:1049C00057E0052969D00C2968D00D2967D0142932
:1049D000F5D1F0E09FED8B0A804981ED070A9FED4C
:1049E000890A81ED050A9FED870A81ED060A0021FB
:1049F000884A11800121864A117032E10021864ADD
:104A000011707A49097B012905D19FED840A734908
:104A100081ED050A13E07549097B022902D17C4A20
:104A200011700CE07149097B032902D1784A117099
:104A300005E06E49097B11B90021754A117010E13A
:104A40006A49097B022903D00121714A11700FE0E4
:104A5000714909780A2905DA6F490978491C6E4AB3
:104A6000117005E000216C4A11700421684A117030
:104A7000F7E05E49097B032903D00121644A1170E4
:104A800014E0654909780A290ADA63490978491C5A
:104A9000614A11700AE00AE0E2E025E041E065E0E9
:104AA00000215D4A11700521594A1170D9E0B2EE1A
:104AB000040A4A4981ED050A9FED520A81ED060A72
:104AC0005449098840F2DC52914206DA0178514A91
:104AD000128811444F4A118005E000214D4A11808F
:104AE0000C214B4A1170BCE0B2EE040A3B4981ED47
:104AF000050A9FED440A81ED060A4649098840F2FD
:104B0000DC52914206DA0178424A12881144414A45
:104B1000118005E000213F4A11800D213C4A1170AF
:104B20009FE0B3EE0E0A2D4981ED050A9FED350A8F
:104B300081ED060A9FED3A0A81ED070A3549098899
:104B4000B1F57A7F06DA0178324A12881144314A87
:104B500011800AE09FED2B0A204981ED070A002110
:104B60002C4A118014212A4A11707AE0B3EE0E0A01
:104B70001A4981ED050A9FED230A81ED060A9FED92
:104B8000290A81ED070A23490988B1F57A7F06DAF7
:104B90000178204A128811441E4A11800AE09FEDD4
:104BA000190A0E4981ED070A00211A4A11801421C1
:104BB000174A117055E00178164A12881144154AB7
:104BC00011801146098864292EDA0178128811446F
:104BD000104A118043E00000280100204C10002002
:104BE0002C0100200AD7233C6F12833ADA2E0020D2
:104BF000180100209A9919C01C010020CDCC4C3E10
:104C00009CC4A03F00000000780100206C0300203D
:104C10002401002032010020300100200000484221
:104C20000000B4C20000B4423F490988B1F5167FC4
:104C30000FDA01783C4A128811443B4A11801FED7B
:104C4000090A3A4981ED050A1FED120A81ED060AAB
:104C500005E00021344A11800121354A117000E03D
:104C600000BF00BF704710B504460B46CBB32F48BA
:104C700090ED030ADFED2F0A20EE200AD0ED040AA2
:104C80009FED2D1A01EE200A80ED060A2B48007BCD
:104C900001282ED12948B0F90E00404200EB400017
:104CA000400000EE100AB8EEC00A204880ED070A66
:104CB00090ED070ADFED220AB4EEE00AF1EE10FAF9
:104CC00002D89FED1F0A10E0184890ED070ADFEDAB
:104CD0001D0AB4EEE00AF1EE10FA03DD9FED190AA9
:104CE00003E00FE0114890ED070A104880ED070A35
:104CF00004E01FED3C0A0D4880ED070A2046FFF74F
:104D000053FE0FE01FED410A084880ED050A1FED34
:104D1000430A80ED060A1FED450A80ED070A0020D0
:104D20000349087010BD0000320100204C10002023
:104D300024010020CDCC4C3FCDCC4C3DDA2E0020C0
:104D40000000C8C20000C84290ED002ADFEDFC2A36
:104D500022EE222AF7EE002A82EE823AB7EE002AED
:104D600033EE022AB7EE003AC3EE022AF54991ED7E
:104D7000002A30EE423A91ED002A02EE832A81EDBC
:104D8000002A90ED002ADFEDEE2A22EE222AF7EE2D
:104D9000002A82EE823AB7EE002A33EE022AB7EEFC
:104DA000003AC3EE022A91ED012A30EEC23A91EDAB
:104DB000012A02EE832A81ED012A91ED002ADFED1E
:104DC000E22A22EE222AE14981ED002ADD4991ED15
:104DD000012ADFEDDD2A22EE222ADC4981ED012ABB
:104DE00090ED002ADFEDD62A62EE222AB7EE003AD5
:104DF00083EE222AF7EE002A32EE222AB7EE003A9C
:104E0000C3EE022AD24991ED082A31EE423A91EDE1
:104E1000082A02EE832A81ED082A90ED002ADFEDB0
:104E2000C82A22EE222AB7EE003AC3EE022AB7EED3
:104E3000002A32EE822AB7EE003AC3EE022A91ED42
:104E4000092A31EEC23A91ED092A02EE832A81ED58
:104E5000092A002117E0BE4A283202EB810292EDB6
:104E6000002ABB4A203202EB8102D2ED002A90EDEB
:104E7000003A02EE832AB64A283202EB810282ED22
:104E8000002A4A1CD1B20229E5DB704710B5024660
:104E90000023B0480078B04C2478A0423FD0AE4800
:104EA0000078AC4C20708B78032003E00C5C6340EE
:104EB000441CE0B20C28F9DB087B984226D1A748B5
:104EC0000078401CA54C2070887A20722046007A19
:104ED000F52803D00020A08060800DE008794C798F
:104EE00040EA042000B29D4C60808878CC7840EA8B
:104EF000042000B2994CA0808879CC7940EA042043
:104F00004FF47A7490FBF4F0944CE0809FED940A97
:104F1000944880ED000A0120904C607015E09148A3
:104F200090ED000AF7EE000AB4EEE00AF1EE10FA96
:104F300008D292ED000AD0ED000A30EE200A80ED92
:104F4000000A02E00020854C607010BD10B52DED08
:104F5000020B85496846FFF799FF844890ED142AB3
:104F6000F0EE421A90ED132AB0EE421A804890ED0E
:104F7000102AF0EE420A90ED0F2AB0EE420A68467F
:104F8000FFF7E2FE1CBD002010E09FED750A70499E
:104F9000283101EB800181ED000A9FED710A75490E
:104FA00001EB800181ED000A411CC8B20228ECDB54
:104FB000704770B52DED028B05460C46287800EE43
:104FC000100AB8EE400ADFED6C0A20EE200AB0EEBF
:104FD000408A142C01DC142006E0B4F5FA7F02DDCF
:104FE0004FF4FA7000E0204600EE100AB8EEC00A56
:104FF000574880ED010A90ED020ADFED600A20EECD
:10500000200AD0ED010A20EE200A80ED040A90ED7E
:10501000030ADFED5A0A20EE200AD0ED010A20EE45
:10502000200A80ED050A00F1180250493431103091
:1050300000F0C1FD4648007810B101287DD10FE095
:10504000012043490870B0EE000A4D4880ED000A87
:10505000B7EE000A4B4880ED000AFFF794FFAFE07F
:105060003E48007AF52869D100209CE03849183183
:1050700001EB800191ED000A3549283101EB8001F7
:10508000D1ED000A30EE600A3F4901EB800181ED6D
:10509000000A384901EB800191ED000A3A4901EB21
:1050A0008001D1ED000A374991ED001A60EE810AC6
:1050B00000EE880A2F4901EB800181ED000A2D499D
:1050C00001EB800191ED000ADFED300AB4EEE00A59
:1050D000F1EE10FA02D89FED2D0A13E0254901EBFD
:1050E000800191ED000ADFED2A0AB4EEE00AF1EE4C
:1050F00010FA02DD9FED260A04E01E4901EB800153
:1051000091ED000A1B4901EB800181ED000A19496C
:1051100001EB800191ED000A1B4901EB8001D1ED0B
:10512000000A174991ED001A00EE810A084928315A
:1051300001EB8001D1ED000A2CE03EE036E00000FA
:105140003433FB4150010020E12E6542380100203C
:1051500078100020340100202F0500206C10002062
:105160000000000058010020F42E002078010020EB
:1051700018120020480100206F12833A82A8FB38E1
:105180005C01002060010020400100200000C8C236
:105190000000C84240EE080A534901EB8001C1ED0E
:1051A000000A411CC8B20228FFF660AF4E4A08321E
:1051B0004E494D4800F0E0FC02E0FFF7E4FE00BF7E
:1051C00000BFBDEC028B70BD01464948007AF5284E
:1051D00012D01FED1D0A4448283880ED030A80EDE7
:1051E000020A4078052843DB3F4828384078401FB2
:1051F0003D4A283A50703BE03D48C0884FF47A72EF
:1052000092FBF0F03A4AB2F90220504300EE100A45
:10521000B8EEC00A3748D0ED010A9FED371A01EE0B
:10522000200A3148283880ED020A3148C0884FF4FE
:105230007A7292FBF0F02E4AB2F90420504300EE4D
:10524000100AB8EEC00A2B48D0ED000A9FED2A1ACA
:1052500001EE600A2448283880ED030A4078FA28D5
:1052600006DC214828384078401D1F4A283A5070F3
:1052700070472248007C48B11B4828380078012834
:1052800017D1002018492839087012E0164828382C
:105290004078642804DA002013492839087008E0AF
:1052A000114828384078C82803DD01200E492839E4
:1052B00008700F48407830B11148007818B10120CB
:1052C0001049087202E000200E490872704701B5CB
:1052D000FFF7CFFF6846FFF777FF0B480188684666
:1052E000FFF767FE08BD0000A0100020AC01002001
:1052F0006C100020380100200000204394020020A0
:105300002405002030110020260500200748407B9E
:1053100008B9012000E0002005490870012048700C
:10532000704710B506F001FB10BD00000011002011
:105330005204002090ED031AB5EEC01AF1EE10FAF7
:1053400020DD90ED051AD0ED031AF1EE611AB4EEEE
:10535000E11AF1EE10FA04D890ED031AB1EE411AF9
:105360000DE090ED051AD0ED031AB4EEE11AF1EE5E
:1053700010FA02DD90ED031A01E090ED051AF0EE4F
:10538000410A01E0D0ED050A90ED001A31EE201A35
:1053900080ED061A90ED011AD0ED061A31EE611A71
:1053A000D0ED021A21EE211A80ED041A90ED051AB3
:1053B000D0ED041A01EE801A80ED051A7047D0ED89
:1053C000000A90ED041A30EE811AD0ED050A41EE84
:1053D000000AC0ED050AD0ED010A90ED051A70EE45
:1053E000C10A90ED021A60EE810AC0ED040AD0ED08
:1053F000030AF5EEC00AF1EE10FA1FDDD0ED040A43
:1054000090ED031AB1EE411AF4EEC10AF1EE10FA72
:1054100004D8D0ED030AF1EE600A0DE0D0ED040AE5
:1054200090ED031AF4EEC10AF1EE10FA02DDD0EDB0
:10543000030A01E0D0ED040AC0ED040A7047F0EE63
:10544000401A9FEDFC2A20EE822A22EE212AB7EE96
:10545000003AC3EE022AB7EE002A32EE822AB7EEF5
:10546000003AC3EE022A90ED002A31EE423A90ED66
:10547000002A02EE832A80ED002AB5EEC01AF1EE72
:1054800010FA02DDB0EE412A01E0B1EE412AB0EEA1
:10549000420A90ED002AF1EE402AB4EEE22AF1EE43
:1054A00010FA02D8B1EE402A0BE090ED002AB4EEDB
:1054B000C02AF1EE10FA02DDB0EE402A01E090EDD4
:1054C000002A80ED012A7047F0EE401A9FEDD92A9C
:1054D00020EE822A22EE212AB7EE003AC3EE022AFB
:1054E000B7EE002A32EE822AB7EE003AC3EE022A65
:1054F00090ED002A31EE423A90ED002A02EE832A26
:1055000080ED002A90ED002AB5EEC02AF1EE10FAE7
:1055100002DD90ED002A03E090ED002AB1EE422A70
:10552000B0EE420AB1EE402AB4EEC21AF1EE10FA21
:1055300002D8B1EE402A09E0B4EEC01AF1EE10FA3A
:1055400002DDB0EE402A01E0B0EE412A80ED012AF2
:105550007047F0EE401A9FEDB72A20EE822A22EE25
:10556000212AB7EE003AC3EE022AB7EE002A32EE45
:10557000822AB7EE003AC3EE022A90ED002A31EEFD
:10558000423A90ED002A02EE832A80ED002AB5EE21
:10559000C01AF1EE10FA02DDB0EE412A01E0B1EEE0
:1055A000412AB0EE420A90ED002AF1EE402AB4EE14
:1055B000E22AF1EE10FA02D8B1EE402A0BE090EDAB
:1055C000002AB4EEC02AF1EE10FA02DDB0EE402A55
:1055D00001E090ED002A80ED002A80ED012A70475D
:1055E0002DE9F84F04460D46DDF828804FF00109FB
:1055F0004FF0000A0126B346CDF800B00127DFEDD9
:105600008E0AB0EE600A00208446D2F808B0C2F8D4
:105610000CB092F800B00BF1010B0BF0FF0B82F80D
:1056200000B0AB4502DB834682F800B092F800B0D0
:1056300044F82B80D2F80CB0A8EB0B0B00EE90BA1C
:10564000B8EEE01A00EE903AF8EE600AC1EE201AC9
:10565000B0EE610AB5EEC00AF1EE10FA02DDF0EE2E
:10566000400A01E0F1EE400AB7EE001AF4EEC10A7A
:10567000F1EE10FA2BD2B5EEC00AF1EE10FA02DD0F
:10568000B0EE401A01E0B1EE401A00EE903AF8EEAA
:10569000600A61EE200AB0EE001AF4EEC10AF1EEE3
:1056A00010FA04D2DFED640AB0EE600A0FE0B5EE46
:1056B000C00AF1EE10FA02DD4FF0010B01E04FF0ED
:1056C000FF3B00EE90BAF8EEE00AB0EE600AD06858
:1056D00000BF00210DE054F821B0ABEB000B54F8F3
:1056E00021E0AEEB000E0BFB0ECC01F1010B0FFA2B
:1056F0008BF1A942EFDBD2F804B0ACEB0B0BBBF1A2
:10570000000F11DDB9F1000F03D14FF0000BCDF800
:1057100000B04FF00109012F02D14FF0FF3B01E033
:105720004FF0010B5F4607E04FF000099E4203DA9D
:1057300006F1010B0BF0FF06C2F804C04FF0000C9D
:1057400000EE900AB8EEE01A00EE907AF8EEE00A69
:1057500000EE801AFDEEC10A10EE900A0AF1010B6C
:105760000BF0FF0BDA469B4502DDE346CDF800B0B7
:10577000022E03DB4FF0000BCDF800B0DDF800B0D7
:10578000BBF1010FA5D09060D2E902BEABEB0E0BCE
:10579000C2F810B0BDE8F88F70B505460C46167813
:1057A000761CF6B21670A64201DB0026167016783B
:1057B00005EB860686ED000A002009E005EB800671
:1057C00096ED001A03EB800686ED001A461CF0B237
:1057D000A042F3DB002029E0002121E003EB810659
:1057E00096ED001A4E1C03EB8606D6ED001AB4EEB9
:1057F000E11AF1EE10FA11DD4E1C03EB8606D6ED30
:10580000000A03EB810696ED001A4E1C03EB860698
:1058100086ED001A03EB8106C6ED000A4E1CF1B2BC
:10582000661E361A8E42D9DC461CF0B2661E8642CF
:10583000D2DC70BDC3F5C8400000000030B50C4696
:1058400015886D1CADB21580A54201DB00251580C1
:10585000158800EB8505D5ED000A158800EB850558
:1058600085ED000A70EE601A01EE104AB8EE412A8A
:1058700081EE821AD3ED001A31EE211A83ED001A5F
:1058800093ED001AD3ED001A70EE611ABFEE002AF4
:10589000F4EEC21AF1EE10FA02D8FFEE001A11E08F
:1058A000D3ED001A70EE611AB7EE002AF4EEC21AB8
:1058B000F1EE10FA02DDF7EE001A03E0D3ED001A64
:1058C00070EE611A9FEDA82A02EE211A83ED001AEC
:1058D00030BD5FED281A60EE211A21EEA02AF7EE06
:1058E000002AC2EE821AB7EE002A71EE821AF7EE93
:1058F000002A82EEA12AD0ED001A71EE612AD0EDC5
:10590000001A42EE221AC0ED001A704770B52DED54
:105910000A8BB0EE408AF0EE608AB0EE419AF0EE6B
:10592000619A044694ED001BB0EE410AF0EE610A64
:1059300053EC102B51EC190B15F083F841EC1B0BB9
:105940001FED440A28EE000A20EE280AB7EE001ADE
:10595000C1EE000AB7EE000A30EE800AF7EE000A48
:1059600080EE801A11EE105A284615F09AF941EC93
:105970001C0B53EC1B2B15F06AF841EC1A0B94ED41
:10598000001BB0EE410AF0EE610A53EC102B14F04C
:10599000B7FFC4E90001BDEC0A8B70BD90ED001AA1
:1059A00030EEC11AB4EEC01AF1EE10FA06DD90ED39
:1059B000001A31EE001A80ED001A13E090ED001A83
:1059C00030EEC11AF1EE401AB4EEE11AF1EE10FA1F
:1059D00006D290ED001A31EE401A80ED001A01E077
:1059E000C0ED000A7047B0EE402A1FED6E0A20EEAF
:1059F000800A20EE020AB7EE003AC3EE002AB7EEA4
:105A0000000A32EE800AB7EE003AC3EE002A90EDAB
:105A1000000A31EE403A90ED000A02EE830A80ED72
:105A2000000A90ED000AF1EE612AB4EEE20AF1EE0E
:105A300010FA02D8B1EE610A0BE090ED000AB4EE64
:105A4000E10AF1EE10FA02DDB0EE610A01E090ED3C
:105A5000000A80ED000A90ED000A31EE400A70471E
:105A600070B504460D461646D4ED020A60EEA00A53
:105A700094ED011AD4ED011A41EE210AB0EE600A4C
:105A800000F03AFF394880ED000AD4ED020A60EEDA
:105A9000A00A94ED001AD4ED001A41EE210AB0EEEE
:105AA000600A00F029FF324880ED000A94ED020AF6
:105AB000B5EEC00AF1EE10FA02D24FF0FF3000E06E
:105AC00001202C49087095ED000A2848D0ED000A05
:105AD00060EE200A94ED001A084690F9000000EEEE
